:03000000020300F8
:100100007589017590F774075590FC74099CFF750B
:10011000F008A4FD74509DFE748012034C90038976
:1001200012036AEF243012035B743012035B74C055
:1001300012034C90039612036AEF75F002A475F057
:100140000A84243012035BE5F0243012035B743020
:1001500012035B12035B315A80ACD294D295D296D3
:10016000D2973173DDFCC294C295C296C2973173A7
:10017000DEFC22758C3C758ABCD28C308DFDC28D24
:01018000225C
:1003000075A00075A00071787178710F02010075F9
:10031000A038C280C281D2827178C282717875A001
:100320000CC280C281D2827178C282717875A001BC
:10033000C280C281D2827178C282717875A006C2F1
:1003400080C281D2827178C282717822F5A0C28087
:10035000C281D2827178C282717822F5A0D280C225
:1003600081D2827178C282717822C0E0E493600504
:10037000715BA380F7D0E022C000C001780179FF53
:10038000D9FED8FAD001D00022447574792043797F
:10039000636C653A200050756C736520576964740E
:0303A000683A00B8
:00000001FF
