:03000000020100FA
:02000B000832B9
:10010000D2AFD2A975900175891131E75152515280
:100110007483512451529002635144515274C2511C
:1001200024515290026E514431CA31CA7800758C04
:1001300000758A00D294D28C3090FDC28CC2947526
:10014000A001C280C281D2825152C2825152515208
:1001500074805124515290027B5144515274C051C9
:100160002451529002895144515274F058C431DCE8
:1001700051335152740F5831DC5133515274145170
:1001800024515274F0558CC431DC51335152740FE8
:10019000558C31DC5133515274F0558AC431DC51E5
:1001A000335152740F558A31DC5133515231CA31B7
:1001B000CA31CA31CA31CA75A001C280C281D28295
:1001C0005152C2822090FD0201107928758D3C7534
:1001D0008BB0D28E308FFDC28FD9F122B40A00408D
:1001E0000324372224302275A038C280C281D282F3
:1001F0005152C282515275A00CC280C281D282512A
:1002000052C282515275A001C280C281D282515223
:10021000C282515275A006C280C281D2825152C29E
:1002200082515222F5A0C280C281D2825152C28232
:05023000515222F5A06F
:10023500D280C281D2825152C2825152515222C0C1
:10024500E0E49360055133A380F7D0E022C000C0FD
:1002550001780179FFD9FED8FAD001D00022546F78
:1002650067676C6520535731006966204C4544200B
:10027500676C6F7773005265616374696F6E2054A4
:0E028500696D6500436F756E7420697320000B
:00000001FF
