:030000000208D71C
:0C08D700787FE4F6D8FD75812002091E30
:100800005365742073776974636865730A004C4399
:10081000442054657374002A2A2A2A2A2A2A2A2A5A
:100820002A2A2A2A2A2A2A2A2A2A2A2A2A2A2A0A48
:10083000002A2A2A2A2A2A3830353120546573742E
:10084000732A2A2A2A2A2A2A2A0A005072657373CE
:10085000203120666F72204750494F2074657374B1
:100860000A005072657373203220666F72204C4507
:100870004420746573740A005072657373203320CA
:10088000666F72204C434420746573740A004750AD
:10089000494F207465737465640A004C45442074A4
:1008A00065737465640A004C434420746573746511
:1008B000640A00496E636F727265637420746573B5
:1008C000742E5061737320636F7272656374206E4F
:0708D000756D6265720A00FC
:0A0B6000010D00010C00C101C100ED
:070A1800120B307F047E0089
:100A1F00E4FDFCC3ED9FEC9E5015E4FBFA0BBB000D
:0F0A2F00010ABA01F8BB7EF50DBD00010C80E491
:010A3E002295
:100B3000C280C281D2828FA07F0A7E00120A1FC2A9
:020B400082220F
:100B4200D280C281D2828FA07F0A7E00120A1FC287
:020B52008222FD
:100A3F008B098A0A890BAB09AA0AA90B120AD8607B
:100A4F0013050BE50B7002050A14F9120AD8FF12F1
:050A5F000B4280E222C1
:100AA2007F387E00120A187F06120A187F0C120A7B
:0B0AB200187F01120A187F80020B3031
:0A0B6B00E4F5A0C282C280C281221C
:03002300020B07C6
:100B0700309904C299D20130980AC29885990CD2BB
:050B170000750C003226
:03000B00020B875E
:050B8700050DB29732DC
:100A6400E4FDFCC3ED9FEC9E5015E4FBFA0BBB00C8
:0F0A7400010ABA01F8BB7EF50DBD00010C80E44C
:010A83002250
:100B1C00758920E4F5C8F59B758DCC759850D28EEF
:040B2C0075A89022F6
:080B7F00C2018F993001FD2233
:090B7500E4FFC2003000FDAF995D
:010B7E002254
:0609ED007BFF7A08791778
:1009F3008B098A0A890BAB09AA0AA90B120AD860C8
:100A030013050BE50B7002050A14F9120AD8FF123D
:050A13000B7F80E222D0
:100ABD0075900F7BFF7A0879001209F37FE87E03AA
:0B0ACD00120A1FE590C454F042902272
:100AF100900000B2977FF47E01120A1FA3E5826481
:050B01000A458370EEBF
:010B060022CC
:100A84007F807E00120B307BFF7A08790E120A3FBA
:0E0A94007FE87E03120A647F017E00020B30B1
:0C0B5400C3E50D940A7480948040F522E3
:10096300E4F50875900F120B6B120AA2120B1C12FE
:1009730009ED7BFF7A0879311209F31209ED7BFF48
:100983007A08794B1209F37BFF7A0879621209F32B
:100993007BFF7A0879788042120B758F087F647E1B
:1009A30000120A1FAF08120B7FAF08120B42E508B3
:1009B30024CE601214601A24027024120ABD7BFF35
:1009C3007A08798E8014120AF17BFF7A08799B806A
:1009D30009120A847BFF7A0879A71209F380B97B8D
:0A09E300FF7A0879B31209F380AE21
:1008E300020963E493A3F8E493A34003F68001F2BF
:1008F30008DFF48029E493A3F85407240CC8C33316
:10090300C4540F4420C8834004F456800146F6DFE4
:10091300E4800B0102040810204080900B60E47E09
:10092300019360BCA3FF543F30E509541FFEE493D9
:10093300A360010ECF54C025E060A840B8E493A3A0
:10094300FAE493A3F8E493A3C8C582C8CAC583CACB
:10095300F0A3C8C582C8CAC583CADFE9DEE780BE83
:010B6A00008A
:100AD800BB010689828A83E0225002E722BBFE021C
:090AE800E32289828A83E493224F
:00000001FF
