:03000000020FAF3D
:0C0FAF00787FE4F6D8FD758158020FF63B
:1010BB002000440020440053636F72653A202020C7
:1010CB00202020202025640053636F72653A202076
:1010DB002020202020256400486967682053636F17
:1010EB0072653A20202025640048696768205363A5
:1010FB006F72653A2020256400000000000000009C
:10110B0000000000000000000000000000000000D4
:0F111B00000000000000000000000000000000C5
:10140500020C0001020A000002080000020E0000A2
:10128400E4F5A0C282C280C2817F38FE1213F31239
:1012940013697F067E001213F31213697F0C7E001C
:1012A4001213F31213697F017E001213F3121369F0
:0712B4007F807E000213F3AE
:041369007F047E007F
:10136D00E4FDFCC3ED9FEC9E5015E4FBFA0BBB00B6
:0F137D00010ABA01F8BB7EF50DBD00010C80E43A
:01138C00223E
:0313F0004480FF37
:1013F300C280C281D2828FA07F0A7E0012136DC287
:02140300822243
:1013D3001510A810A607D280C281D282A810E6F504
:0D13E300A07F0A7E0012136DC28205102249
:1011EB00AE83E5824480FF1213F37BFF7A1079BB49
:1011FB00151015101510A810A60308A60208A601B5
:10120B00A810860308E6FA08E6F9120C526019A832
:10121B00108603080806E618860270010614F912F8
:0F122B000C52FF1213D380D805100510051022A6
:0412BB00AD07AC06C9
:1012BF00E4FBAE04ED1213F012136975A0FFC282A6
:1012CF00D280D281D2827F0A12136DABA0C282EB81
:0D12DF0064446007EB642A6002E4FBAF0387
:0112EC0022DF
:10119800E4F557F558F582F583EF2402FFE43EFEA7
:1011A8007C007D28120C6B8C578D58E5582440F52F
:1011B80082E43557F583AF58AE571212BBAD07BD61
:1011C8002A057E007F0122ED644460131211EBAE04
:1011D80057E5581213F07BFF7A1079BD1211FBE422
:0211E800FEFF08
:0111EA0022E2
:10123A00EF2402FFE43EFE7C007D28120C6B8D82B7
:10124A008C83E5822440F558E43583F557AF58FE80
:10125A001212BBBF2A057E007F0122EF644460168A
:10126A001211EBAE57E5584480FF1213F37BFF7A55
:09127A001079BD1211FBE4FEFF26
:011283002248
:10141600758920758DF3759850D28ED2ACD2AF22D5
:0300230002112A9D
:10112A00C0E0C0F0C083C082C0D075D000C000C08B
:0D113A0001C002C003C004C005C006C0070C
:10114700755600309904C299802C309829C2988529
:101157009956E556B4710DAF09AE08121198EE4FC6
:1011670024FF920AE556B4610DAF09AE0812123A90
:06117700EE4F24FF920A76
:10117D00D007D006D005D004D003D002D001D000C6
:0B118D00D0D0D082D083D0F0D0E03270
:10131A00E4FFFE758C3C758AB0D2A9D28C308DFD63
:10132A00C28C758C3C758AB0C28D0FBF00010EEF5E
:07133A0064284E70E6C2A911
:011341002289
:1012ED00E50D5407FFE4C313FCEF13FD7E00E50D80
:1012FD0054017802C333CE33CED8F9FFE50D540433
:0C130D00FBEF6B4205EE4204AE04AF059E
:0113190022B1
:040D35008E228F2358
:100D390078247C007D007BFF7A1179047E007F0393
:100D4900120C2C78277C007D007BFF7A1179077EB5
:100D5900007F03120C2CE509240FFFE43508FE7C03
:100D6900007D28120C6BAE04ED4480FFED2440FD9C
:100D7900E43CF52AED4480F52BE50C6003020E20D6
:100D8900E50D14B407004003020E20900DA275F082
:100D990003A4C58325F0C58373020DB7020E0E02A5
:100DA9000DEC020DBF020DFD020DD0020DD8752408
:100DB9002075252A804475242075252075262075DF
:100DC900272075282A801775242075252A803C75C7
:100DD900242075252075262075272075282075293A
:100DE9002A803475242075252075262075272075BD
:100DF900282A802075242075252075262A75272004
:100E0900752820800F7524207525207526207527C3
:100E1900207528207529201213F374242523F8E658
:100E2900FF1213D3AF2BAE2A1213F374272523F81D
:050E3900E6FF0213D3E7
:100EF900E4F522F523E5092402FFE43508FE7C0028
:100F09007D28120C6B8D828C83E4F524F525C2AF04
:100F1900AF82AE831212BBEF64446006752400757C
:100F290025407F187E001213F3E5252582FFE5246D
:100F39003583FEF522EF4480F523EF64274E6035B3
:100F4900EF64674E602FE5822401FFE43583FE7C60
:100F5900007D28120C6BE5252DFFE5243CFE1212BD
:100F6900BBBF2A028019AF23AE221213F37BFF7A8B
:100F79001079BF8028AF25AE241212BBBF2A057E87
:100F8900007F0122AF23AE221211F2E5252480FF52
:100F9900E43524FE1213F37BFF7A1079BD1211FB9D
:050FA900D2AFE4FEFFE1
:010FAE002220
:10138D00C20AC209E4F508F509D2ACD2AF7F01FE5D
:10139D001213F37F827E001213F37BFF7A1079BD57
:0313AD000211FB2F
:100E3E0078227C007D007BFF7A11790A7E007F107C
:100E4E00120C2C78327C007D007BFF7A11791A7E91
:100E5E00007F10120C2CC2AF7F017E001213F37FA5
:100E6E00807E001213F3C3E5099464E508940050E4
:100E7E000B7545FF7546107547C280097545FF75A0
:100E8E0046107547D38508488509497B007A007955
:100E9E002212085C7B007A0079221211FBC3E50F47
:100EAE009464E50E94007FC07E00500E1213F3750D
:100EBE0045FF7546107547E3800C1213F37545FF19
:100ECE007546107547F4850E48850F497B007A00EC
:100EDE00793212085C7B007A0079321211FBD2AFA4
:0B0EEE00C2AC12131A12131A02131ADE
:10103B0075900F121284121416438901758C3C752E
:10104B008A458025C209D2A9D28C200A033009FA1D
:10105B00C2A9300A05120E3E800F120EF9EE4F2474
:10106B00FF920A300A08120E3E12138D80D6050924
:10107B00E50970020508AE08FF7C007D03120C6BBE
:10108B00AE04AF05120D35C3E50F9509E50E9508B6
:10109B00500685080E85090FAE08AF097C007D034D
:1010AB00120C6BED4C709D1212ED8E0C8F0D80940B
:03000B000213B02D
:1013B000C0E0050BE50B7002050A758C3C758AB020
:1013C000E50B6428450A7008F50AF50BD209C28CB2
:0313D000D0E03238
:100FBB0002103BE493A3F8E493A34003F68001F201
:100FCB0008DFF48029E493A3F85407240CC8C33337
:100FDB00C4540F4420C8834004F456800146F6DF06
:100FEB00E4800B0102040810204080901405E47E7D
:100FFB00019360BCA3FF543F30E509541FFEE493FB
:10100B00A360010ECF54C025E060A840B8E493A3C1
:10101B00FAE493A3F8E493A3C8C582C8CAC583CAEC
:10102B00F0A3C8C582C8CAC583CADFE9DEE780BEA4
:0114150000D6
:100B5C00E709F608DFFA8046E709F208DFFA803E7B
:100B6C0088828C83E709F0A3DFFA8032E309F60868
:100B7C00DFFA8078E309F208DFFA807088828C83D0
:100B8C00E309F0A3DFFA806489828A83E0A3F60884
:100B9C00DFFA805889828A83E0A3F208DFFA804C5E
:100BAC0080D280FA80C680D4806980F28033801035
:100BBC0080A680EA809A80A880DA80E280CA80339E
:100BCC0089828A83ECFAE493A3C8C582C8CCC58316
:100BDC00CCF0A3C8C582C8CCC583CCDFE9DEE780E6
:100BEC000D89828A83E493A3F608DFF9ECFAA9F065
:100BFC00EDFB2289828A83ECFAE0A3C8C582C8CCBB
:100C0C00C583CCF0A3C8C582C8CCC583CCDFEADED3
:100C1C00E880DB89828A83E493A3F208DFF980CC35
:100C2C0088F0EF60010E4E60C388F0ED2402B4042E
:100C3C000050B9F582EB2402B4040050AF232345D5
:060C4C008223900BAC7343
:100C5200BB010689828A83E0225002E722BBFE02A0
:090C6200E32289828A83E49322D3
:100C6B00BC000BBE0029EF8DF084FFADF022E4CC6D
:100C7B00F875F008EF2FFFEE33FEEC33FCEE9DEC36
:100C8B00984005FCEE9DFE0FD5F0E9E4CEFD22ED7C
:100C9B00F8F5F0EE8420D21CFEADF075F008EF2FC6
:100CAB00FFED33FD4007985006D5F0F222C398FDB7
:050CBB000FD5F0EA2254
:10080000E5512445F8E60551227842300702784543
:10081000E475F001120CFF020C522000EB7F2ED287
:10082000008018EF540F2490D43440D4FF30040BD0
:10083000EF24BFB41A0050032461FFE55260021593
:10084000520555E5557002055430070D7842E475A0
:10085000F001120CFFEF020CED0213427403D207F9
:100860008003E4C207F5518B428A438944E4F55280
:10087000F554F555E55260077F2012083B80F57569
:1008800053FFC201C200C202C203C205C206C208AF
:10089000120809FF700D3007057F0012084CAF5594
:1008A000AE5422B4255FC2D5C204120809FF24D079
:1008B000B40A00501A75F00A785230D50508B6FF10
:1008C0000106C6A426F620D5047002D20380D924DE
:1008D000CFB41A00EF5004C2E5D204020A4CD20190
:1008E00080C6D20080C0D20280BCD2D580BAD205E8
:1008F00080B47F2012083B2002077401B5520040EB
:10090000F1120800FF12083B020874D208D20680D8
:1009100095120800FB120800FA120800F94A4B7001
:1009200006791D7A0B7BFF20022EE552602A7E009D
:100930008E82758300120CC060060EEE655370F057
:10094000C2D5EBC0E0EAC0E0E9C0E0EE120A93D005
:10095000E0F9D0E0FAD0E0FB120C52FF60AAEBC045
:10096000E0EAC0E0E9C0E012083BD0E02401F9D0A1
:10097000E03400FAD0E0FBE5530460DCD553D980C5
:10098000877BFF7A0A798FD202809C791080027966
:1009900008C206C2088008D2D5790A8004790AC242
:1009A000D5E553047002F553E4FAFDFEFF1208008A
:1009B000FC7B08200113120800FD7B1030000A1296
:1009C0000800FE120800FF7B20EC3382D592D55040
:1009D00013C3E43000069FFFE49EFEE42001039D64
:1009E000FDE49CFCE4CBF8C201EC700CCFCECDCC86
:1009F000E824F8F870F38017C3EF33FFEE33FEED11
:100A000033FDEC33FCEB33FB994002FB0FD8E9EBF1
:100A1000300105F8D0E0C448B201C0E00AEC4D4E08
:100A20004F78207B0070C2EAB5530040BCC0E01292
:100A30000A95D0F0D0E0200104C4C0E0C4B201C0E7
:100A4000F0120824D0F0D5F0EB020874120D0F0953
:100A50001153098B5808E24C08DE42098F4F099761
:0F0A60004409974908F743099D550981460981C3
:100A6F00450981470B3D5008E62D08EA2E090D2B4D
:100A7F0008EE23090B200B262A08A64800000905BB
:100A8F003F3F3F00790AA2D5200314300509B91062
:100A9F00020404B9080104A2D52006025001042063
:100AAF0002689202B552005034C0E07F2030031923
:100ABF007F30A20272067205500F120AECC202C2F8
:100ACF0006C205C2087F30800F300503E9C0E0126F
:100ADF00083B300503D0E0F9D0E0B552CC30051714
:100AEF007F30B9100C12083B7F583004077F788095
:100AFF0003B9080312083B3002057F2D02083B7F24
:100B0F00202008F87F2B2006F322920280CF286E38
:100B1F00756C6C2900D2011208003001F8C20178FF
:100B2F005230D50108F60208A62D50434958120835
:100B3F00002403B405004001E4900B389312082CF5
:0D0B4F00743A12082CD20375520402098B6F
:100CC000BB010CE58229F582E5833AF583E02250E9
:100CD00006E92582F8E622BBFE06E92582F8E22233
:0D0CE000E58229F582E5833AF583E493224D
:100CED00BB010689828A83F0225002F722BBFE01E6
:020CFD00F322E0
:100CFF00FAE6FB0808E6F925F0F618E6CA3AF622F6
:100D0F00D083D082F8E4937012740193700DA3A373
:100D1F0093F8740193F5828883E473740293686087
:060D2F00EFA3A3A380DF87
:10134200EFB40A07740D12134D740A309811A8995C
:10135200B8130CC2983098FDA899C298B811F6300B
:0713620099FDC299F59922E3
:00000001FF
